{
  "contractName": "TrustedDonations",
  "abi": [
    {
      "inputs": [
        {
          "internalType": "string",
          "name": "_ownerName",
          "type": "string"
        }
      ],
      "stateMutability": "nonpayable",
      "type": "constructor"
    },
    {
      "inputs": [
        {
          "internalType": "uint256",
          "name": "",
          "type": "uint256"
        }
      ],
      "name": "DonationList",
      "outputs": [
        {
          "internalType": "uint256",
          "name": "donateAmount",
          "type": "uint256"
        },
        {
          "internalType": "address",
          "name": "donorAddr",
          "type": "address"
        },
        {
          "internalType": "string",
          "name": "donorName",
          "type": "string"
        },
        {
          "internalType": "uint256",
          "name": "time",
          "type": "uint256"
        }
      ],
      "stateMutability": "view",
      "type": "function"
    },
    {
      "inputs": [
        {
          "internalType": "uint256",
          "name": "",
          "type": "uint256"
        }
      ],
      "name": "PaymentList",
      "outputs": [
        {
          "internalType": "uint256",
          "name": "paidAmount",
          "type": "uint256"
        },
        {
          "internalType": "address",
          "name": "beneficiaryAddr",
          "type": "address"
        },
        {
          "internalType": "address",
          "name": "ownerId",
          "type": "address"
        },
        {
          "internalType": "uint256",
          "name": "time",
          "type": "uint256"
        }
      ],
      "stateMutability": "view",
      "type": "function"
    },
    {
      "inputs": [
        {
          "internalType": "uint256",
          "name": "",
          "type": "uint256"
        }
      ],
      "name": "beneficiaries",
      "outputs": [
        {
          "internalType": "string",
          "name": "name",
          "type": "string"
        },
        {
          "internalType": "address",
          "name": "addr",
          "type": "address"
        },
        {
          "internalType": "uint256",
          "name": "bReq",
          "type": "uint256"
        },
        {
          "internalType": "uint256",
          "name": "bLeft",
          "type": "uint256"
        }
      ],
      "stateMutability": "view",
      "type": "function"
    },
    {
      "inputs": [],
      "name": "owner",
      "outputs": [
        {
          "internalType": "uint256",
          "name": "funds",
          "type": "uint256"
        },
        {
          "internalType": "uint256",
          "name": "requiredFunds",
          "type": "uint256"
        }
      ],
      "stateMutability": "view",
      "type": "function"
    },
    {
      "inputs": [
        {
          "internalType": "string",
          "name": "_name",
          "type": "string"
        },
        {
          "internalType": "address",
          "name": "accNo",
          "type": "address"
        },
        {
          "internalType": "uint256",
          "name": "required",
          "type": "uint256"
        }
      ],
      "name": "addBeneficiary",
      "outputs": [],
      "stateMutability": "nonpayable",
      "type": "function"
    },
    {
      "inputs": [
        {
          "internalType": "address",
          "name": "accountNum",
          "type": "address"
        }
      ],
      "name": "deleteBeneficiary",
      "outputs": [],
      "stateMutability": "nonpayable",
      "type": "function"
    },
    {
      "inputs": [
        {
          "internalType": "string",
          "name": "_donorName",
          "type": "string"
        }
      ],
      "name": "makeDonation",
      "outputs": [
        {
          "internalType": "string",
          "name": "",
          "type": "string"
        }
      ],
      "stateMutability": "payable",
      "type": "function"
    },
    {
      "inputs": [],
      "name": "getCollectedFund",
      "outputs": [
        {
          "internalType": "uint256",
          "name": "",
          "type": "uint256"
        }
      ],
      "stateMutability": "view",
      "type": "function"
    },
    {
      "inputs": [],
      "name": "getRequiredFund",
      "outputs": [
        {
          "internalType": "uint256",
          "name": "",
          "type": "uint256"
        }
      ],
      "stateMutability": "view",
      "type": "function"
    },
    {
      "inputs": [
        {
          "internalType": "address",
          "name": "accountId",
          "type": "address"
        }
      ],
      "name": "findBeneficiary",
      "outputs": [
        {
          "internalType": "string",
          "name": "result",
          "type": "string"
        }
      ],
      "stateMutability": "view",
      "type": "function"
    },
    {
      "inputs": [
        {
          "internalType": "address payable",
          "name": "accountId",
          "type": "address"
        },
        {
          "internalType": "uint256",
          "name": "fund",
          "type": "uint256"
        }
      ],
      "name": "payBeneficiary",
      "outputs": [],
      "stateMutability": "nonpayable",
      "type": "function"
    }
  ],
  "bytecode": "0x60806040526000805560006001553480156200001a57600080fd5b50604051620021f8380380620021f88339818101604052810190620000409190620003a8565b600360000181908060018154018082558091505060019003906000526020600020016000909190919091509080519060200190620000809291906200015b565b506003600101339080600181540180825580915050600190039060005260206000200160009091909190916101000a81548173ffffffffffffffffffffffffffffffffffffffff021916908373ffffffffffffffffffffffffffffffffffffffff1602179055506000600360020181905550600060038001819055506001600760003373ffffffffffffffffffffffffffffffffffffffff1673ffffffffffffffffffffffffffffffffffffffff16815260200190815260200160002060006101000a81548160ff021916908315150217905550506200045d565b828054620001699062000428565b90600052602060002090601f0160209004810192826200018d5760008555620001d9565b82601f10620001a857805160ff1916838001178555620001d9565b82800160010185558215620001d9579182015b82811115620001d8578251825591602001919060010190620001bb565b5b509050620001e89190620001ec565b5090565b5b8082111562000207576000816000905550600101620001ed565b5090565b6000604051905090565b600080fd5b600080fd5b600080fd5b600080fd5b6000601f19601f8301169050919050565b7f4e487b7100000000000000000000000000000000000000000000000000000000600052604160045260246000fd5b620002748262000229565b810181811067ffffffffffffffff821117156200029657620002956200023a565b5b80604052505050565b6000620002ab6200020b565b9050620002b9828262000269565b919050565b600067ffffffffffffffff821115620002dc57620002db6200023a565b5b620002e78262000229565b9050602081019050919050565b60005b8381101562000314578082015181840152602081019050620002f7565b8381111562000324576000848401525b50505050565b6000620003416200033b84620002be565b6200029f565b90508281526020810184848401111562000360576200035f62000224565b5b6200036d848285620002f4565b509392505050565b600082601f8301126200038d576200038c6200021f565b5b81516200039f8482602086016200032a565b91505092915050565b600060208284031215620003c157620003c062000215565b5b600082015167ffffffffffffffff811115620003e257620003e16200021a565b5b620003f08482850162000375565b91505092915050565b7f4e487b7100000000000000000000000000000000000000000000000000000000600052602260045260246000fd5b600060028204905060018216806200044157607f821691505b602082108103620004575762000456620003f9565b5b50919050565b611d8b806200046d6000396000f3fe60806040526004361061009c5760003560e01c80638287e61e116100645780638287e61e1461019c5780638da5cb5b146101d9578063cd696a1114610205578063d7fcf45614610230578063e107a32414610260578063efeb5e581461028b5761009c565b806310ecec72146100a15780634b91058a146100e157806372ec45a81461010a57806375af4ec0146101335780637d3bca7614610173575b600080fd5b3480156100ad57600080fd5b506100c860048036038101906100c3919061145d565b6102cb565b6040516100d894939291906114da565b60405180910390f35b3480156100ed57600080fd5b506101086004803603810190610103919061155d565b61034b565b005b34801561011657600080fd5b50610131600480360381019061012c919061170f565b610765565b005b34801561013f57600080fd5b5061015a6004803603810190610155919061145d565b6109df565b60405161016a9493929190611806565b60405180910390f35b34801561017f57600080fd5b5061019a60048036038101906101959190611852565b610ac7565b005b3480156101a857600080fd5b506101c360048036038101906101be9190611852565b610dfd565b6040516101d0919061187f565b60405180910390f35b3480156101e557600080fd5b506101ee610fea565b6040516101fc9291906118a1565b60405180910390f35b34801561021157600080fd5b5061021a610ffc565b60405161022791906118ca565b60405180910390f35b61024a600480360381019061024591906118e5565b611018565b604051610257919061187f565b60405180910390f35b34801561026c57600080fd5b506102756111ae565b60405161028291906118ca565b60405180910390f35b34801561029757600080fd5b506102b260048036038101906102ad919061145d565b6111bb565b6040516102c2949392919061192e565b60405180910390f35b600a81815481106102db57600080fd5b90600052602060002090600402016000915090508060000154908060010160009054906101000a900473ffffffffffffffffffffffffffffffffffffffff16908060020160009054906101000a900473ffffffffffffffffffffffffffffffffffffffff16908060030154905084565b60011515600760003373ffffffffffffffffffffffffffffffffffffffff1673ffffffffffffffffffffffffffffffffffffffff16815260200190815260200160002060009054906101000a900460ff161515146103de576040517f08c379a00000000000000000000000000000000000000000000000000000000081526004016103d5906119c6565b60405180910390fd5b60011515600960008473ffffffffffffffffffffffffffffffffffffffff1673ffffffffffffffffffffffffffffffffffffffff16815260200190815260200160002060009054906101000a900460ff16151514610471576040517f08c379a000000000000000000000000000000000000000000000000000000000815260040161046890611a32565b60405180910390fd5b6000805b600880549050811015610515576008818154811061049657610495611a52565b5b906000526020600020906004020160010160009054906101000a900473ffffffffffffffffffffffffffffffffffffffff1673ffffffffffffffffffffffffffffffffffffffff168473ffffffffffffffffffffffffffffffffffffffff160361050257809150610515565b808061050d90611ab0565b915050610475565b50600082905082600883815481106105305761052f611a52565b5b90600052602060002090600402016003015411610570576008828154811061055b5761055a611a52565b5b90600052602060002090600402016003015490505b806008838154811061058557610584611a52565b5b9060005260206000209060040201600301546105a19190611af8565b600883815481106105b5576105b4611a52565b5b906000526020600020906004020160030181905550806003600201546105db9190611af8565b6003600201819055508060038001546105f49190611af8565b6003800181905550600a60405180608001604052808381526020018673ffffffffffffffffffffffffffffffffffffffff1681526020013373ffffffffffffffffffffffffffffffffffffffff1681526020014281525090806001815401808255809150506001900390600052602060002090600402016000909190919091506000820151816000015560208201518160010160006101000a81548173ffffffffffffffffffffffffffffffffffffffff021916908373ffffffffffffffffffffffffffffffffffffffff16021790555060408201518160020160006101000a81548173ffffffffffffffffffffffffffffffffffffffff021916908373ffffffffffffffffffffffffffffffffffffffff1602179055506060820151816003015550508373ffffffffffffffffffffffffffffffffffffffff166108fc829081150290604051600060405180830381858888f1935050505015801561075e573d6000803e3d6000fd5b5050505050565b60011515600760003373ffffffffffffffffffffffffffffffffffffffff1673ffffffffffffffffffffffffffffffffffffffff16815260200190815260200160002060009054906101000a900460ff161515146107f8576040517f08c379a00000000000000000000000000000000000000000000000000000000081526004016107ef906119c6565b60405180910390fd5b60001515600960008473ffffffffffffffffffffffffffffffffffffffff1673ffffffffffffffffffffffffffffffffffffffff16815260200190815260200160002060009054906101000a900460ff1615151461088b576040517f08c379a000000000000000000000000000000000000000000000000000000000815260040161088290611b78565b60405180910390fd5b600860405180608001604052808581526020018473ffffffffffffffffffffffffffffffffffffffff16815260200183815260200183815250908060018154018082558091505060019003906000526020600020906004020160009091909190915060008201518160000190805190602001906109099291906112a3565b5060208201518160010160006101000a81548173ffffffffffffffffffffffffffffffffffffffff021916908373ffffffffffffffffffffffffffffffffffffffff160217905550604082015181600201556060820151816003015550508060038001600082825461097b9190611b98565b925050819055506001600960008473ffffffffffffffffffffffffffffffffffffffff1673ffffffffffffffffffffffffffffffffffffffff16815260200190815260200160002060006101000a81548160ff021916908315150217905550505050565b600281815481106109ef57600080fd5b90600052602060002090600402016000915090508060000154908060010160009054906101000a900473ffffffffffffffffffffffffffffffffffffffff1690806002018054610a3e90611c1d565b80601f0160208091040260200160405190810160405280929190818152602001828054610a6a90611c1d565b8015610ab75780601f10610a8c57610100808354040283529160200191610ab7565b820191906000526020600020905b815481529060010190602001808311610a9a57829003601f168201915b5050505050908060030154905084565b60011515600960008373ffffffffffffffffffffffffffffffffffffffff1673ffffffffffffffffffffffffffffffffffffffff16815260200190815260200160002060009054906101000a900460ff16151514610b5a576040517f08c379a0000000000000000000000000000000000000000000000000000000008152600401610b5190611a32565b60405180910390fd5b6000805b600880549050811015610bfe5760088181548110610b7f57610b7e611a52565b5b906000526020600020906004020160010160009054906101000a900473ffffffffffffffffffffffffffffffffffffffff1673ffffffffffffffffffffffffffffffffffffffff168373ffffffffffffffffffffffffffffffffffffffff1603610beb57809150610bfe565b8080610bf690611ab0565b915050610b5e565b5060086001600880549050610c139190611af8565b81548110610c2457610c23611a52565b5b906000526020600020906004020160088281548110610c4657610c45611a52565b5b90600052602060002090600402016000820181600001908054610c6890611c1d565b610c73929190611329565b506001820160009054906101000a900473ffffffffffffffffffffffffffffffffffffffff168160010160006101000a81548173ffffffffffffffffffffffffffffffffffffffff021916908373ffffffffffffffffffffffffffffffffffffffff160217905550600282015481600201556003820154816003015590505060088181548110610d0657610d05611a52565b5b9060005260206000209060040201600201546003800154610d279190611af8565b60038001819055506008805480610d4157610d40611c4e565b5b600190038181906000526020600020906004020160008082016000610d6691906113b6565b6001820160006101000a81549073ffffffffffffffffffffffffffffffffffffffff021916905560028201600090556003820160009055505090556000600960008473ffffffffffffffffffffffffffffffffffffffff1673ffffffffffffffffffffffffffffffffffffffff16815260200190815260200160002060006101000a81548160ff0219169083151502179055505050565b606060011515600960008473ffffffffffffffffffffffffffffffffffffffff1673ffffffffffffffffffffffffffffffffffffffff16815260200190815260200160002060009054906101000a900460ff16151514610e92576040517f08c379a0000000000000000000000000000000000000000000000000000000008152600401610e8990611cc9565b60405180910390fd5b60005b600880549050811015610fe35760088181548110610eb657610eb5611a52565b5b906000526020600020906004020160010160009054906101000a900473ffffffffffffffffffffffffffffffffffffffff1673ffffffffffffffffffffffffffffffffffffffff168373ffffffffffffffffffffffffffffffffffffffff1603610fd05760088181548110610f2e57610f2d611a52565b5b90600052602060002090600402016000018054610f4a90611c1d565b80601f0160208091040260200160405190810160405280929190818152602001828054610f7690611c1d565b8015610fc35780601f10610f9857610100808354040283529160200191610fc3565b820191906000526020600020905b815481529060010190602001808311610fa657829003601f168201915b5050505050915050610fe5565b8080610fdb90611ab0565b915050610e95565b505b919050565b60038060020154908060030154905082565b600060036002015460038001546110139190611af8565b905090565b6060633b9aca00341015611061576040517f08c379a000000000000000000000000000000000000000000000000000000000815260040161105890611d35565b60405180910390fd5b34600360020160008282546110769190611b98565b92505081905550600260405180608001604052803481526020013373ffffffffffffffffffffffffffffffffffffffff1681526020018481526020014281525090806001815401808255809150506001900390600052602060002090600402016000909190919091506000820151816000015560208201518160010160006101000a81548173ffffffffffffffffffffffffffffffffffffffff021916908373ffffffffffffffffffffffffffffffffffffffff160217905550604082015181600201908051906020019061114c9291906112a3565b506060820151816003015550503460008082825461116a9190611b98565b925050819055506040518060400160405280601081526020017f4d616465206120646f6e6174696f6e21000000000000000000000000000000008152509050919050565b6000600360020154905090565b600881815481106111cb57600080fd5b90600052602060002090600402016000915090508060000180546111ee90611c1d565b80601f016020809104026020016040519081016040528092919081815260200182805461121a90611c1d565b80156112675780601f1061123c57610100808354040283529160200191611267565b820191906000526020600020905b81548152906001019060200180831161124a57829003601f168201915b5050505050908060010160009054906101000a900473ffffffffffffffffffffffffffffffffffffffff16908060020154908060030154905084565b8280546112af90611c1d565b90600052602060002090601f0160209004810192826112d15760008555611318565b82601f106112ea57805160ff1916838001178555611318565b82800160010185558215611318579182015b828111156113175782518255916020019190600101906112fc565b5b50905061132591906113f6565b5090565b82805461133590611c1d565b90600052602060002090601f01602090048101928261135757600085556113a5565b82601f1061136857805485556113a5565b828001600101855582156113a557600052602060002091601f016020900482015b828111156113a4578254825591600101919060010190611389565b5b5090506113b291906113f6565b5090565b5080546113c290611c1d565b6000825580601f106113d457506113f3565b601f0160209004906000526020600020908101906113f291906113f6565b5b50565b5b8082111561140f5760008160009055506001016113f7565b5090565b6000604051905090565b600080fd5b600080fd5b6000819050919050565b61143a81611427565b811461144557600080fd5b50565b60008135905061145781611431565b92915050565b6000602082840312156114735761147261141d565b5b600061148184828501611448565b91505092915050565b61149381611427565b82525050565b600073ffffffffffffffffffffffffffffffffffffffff82169050919050565b60006114c482611499565b9050919050565b6114d4816114b9565b82525050565b60006080820190506114ef600083018761148a565b6114fc60208301866114cb565b61150960408301856114cb565b611516606083018461148a565b95945050505050565b600061152a82611499565b9050919050565b61153a8161151f565b811461154557600080fd5b50565b60008135905061155781611531565b92915050565b600080604083850312156115745761157361141d565b5b600061158285828601611548565b925050602061159385828601611448565b9150509250929050565b600080fd5b600080fd5b6000601f19601f8301169050919050565b7f4e487b7100000000000000000000000000000000000000000000000000000000600052604160045260246000fd5b6115f0826115a7565b810181811067ffffffffffffffff8211171561160f5761160e6115b8565b5b80604052505050565b6000611622611413565b905061162e82826115e7565b919050565b600067ffffffffffffffff82111561164e5761164d6115b8565b5b611657826115a7565b9050602081019050919050565b82818337600083830152505050565b600061168661168184611633565b611618565b9050828152602081018484840111156116a2576116a16115a2565b5b6116ad848285611664565b509392505050565b600082601f8301126116ca576116c961159d565b5b81356116da848260208601611673565b91505092915050565b6116ec816114b9565b81146116f757600080fd5b50565b600081359050611709816116e3565b92915050565b6000806000606084860312156117285761172761141d565b5b600084013567ffffffffffffffff81111561174657611745611422565b5b611752868287016116b5565b9350506020611763868287016116fa565b925050604061177486828701611448565b9150509250925092565b600081519050919050565b600082825260208201905092915050565b60005b838110156117b857808201518184015260208101905061179d565b838111156117c7576000848401525b50505050565b60006117d88261177e565b6117e28185611789565b93506117f281856020860161179a565b6117fb816115a7565b840191505092915050565b600060808201905061181b600083018761148a565b61182860208301866114cb565b818103604083015261183a81856117cd565b9050611849606083018461148a565b95945050505050565b6000602082840312156118685761186761141d565b5b6000611876848285016116fa565b91505092915050565b6000602082019050818103600083015261189981846117cd565b905092915050565b60006040820190506118b6600083018561148a565b6118c3602083018461148a565b9392505050565b60006020820190506118df600083018461148a565b92915050565b6000602082840312156118fb576118fa61141d565b5b600082013567ffffffffffffffff81111561191957611918611422565b5b611925848285016116b5565b91505092915050565b6000608082019050818103600083015261194881876117cd565b905061195760208301866114cb565b611964604083018561148a565b611971606083018461148a565b95945050505050565b7f5065726d697373696f6e2044656e6965642c204e6f7420616e204f776e657200600082015250565b60006119b0601f83611789565b91506119bb8261197a565b602082019050919050565b600060208201905081810360008301526119df816119a3565b9050919050565b7f42656e656669636961727920646f65736e27742065786973742e000000000000600082015250565b6000611a1c601a83611789565b9150611a27826119e6565b602082019050919050565b60006020820190508181036000830152611a4b81611a0f565b9050919050565b7f4e487b7100000000000000000000000000000000000000000000000000000000600052603260045260246000fd5b7f4e487b7100000000000000000000000000000000000000000000000000000000600052601160045260246000fd5b6000611abb82611427565b91507fffffffffffffffffffffffffffffffffffffffffffffffffffffffffffffffff8203611aed57611aec611a81565b5b600182019050919050565b6000611b0382611427565b9150611b0e83611427565b925082821015611b2157611b20611a81565b5b828203905092915050565b7f42656e656669636961727920616c726561647920657869737400000000000000600082015250565b6000611b62601983611789565b9150611b6d82611b2c565b602082019050919050565b60006020820190508181036000830152611b9181611b55565b9050919050565b6000611ba382611427565b9150611bae83611427565b9250827fffffffffffffffffffffffffffffffffffffffffffffffffffffffffffffffff03821115611be357611be2611a81565b5b828201905092915050565b7f4e487b7100000000000000000000000000000000000000000000000000000000600052602260045260246000fd5b60006002820490506001821680611c3557607f821691505b602082108103611c4857611c47611bee565b5b50919050565b7f4e487b7100000000000000000000000000000000000000000000000000000000600052603160045260246000fd5b7f42656e656669636961727920646f6573206e6f74206578697374000000000000600082015250565b6000611cb3601a83611789565b9150611cbe82611c7d565b602082019050919050565b60006020820190508181036000830152611ce281611ca6565b9050919050565b7f4e6f7420656e6f75676820646f6e6174696f6e20746f207265636f7264000000600082015250565b6000611d1f601d83611789565b9150611d2a82611ce9565b602082019050919050565b60006020820190508181036000830152611d4e81611d12565b905091905056fea2646970667358221220fb45e1726c094b2a570af6d8a575128fff68f2fefa23a33c2b789531783ddc7c64736f6c634300080e0033",
  "immutableReferences": {},
  "source": "// SPDX-License-Identifier: MIT\r\npragma solidity >=0.7.0 <0.9.0;\r\n\r\n/// @title A title that should describe the contract/interface\r\n/// @author The name of the author\r\n/// @notice Explain to an end user what this does\r\n/// @dev Explain to a developer any extra details\r\ncontract TrustedDonations {\r\n    uint totalCollection=0;\r\n    uint requirement=0;\r\n\r\n    struct Donation {\r\n        uint donateAmount;\r\n        address donorAddr;\r\n        string donorName;\r\n        uint time;\r\n    }\r\n\r\n    struct Owner{                                                                \r\n        string[] name;\r\n        address[] ownerAddr;\r\n        uint funds;\r\n        uint requiredFunds;\r\n    }\r\n\r\n    struct Beneficiary{\r\n        string name;\r\n        address addr;\r\n        uint bReq;\r\n        uint bLeft;\r\n    }\r\n\r\n    struct Payment{\r\n        uint paidAmount;\r\n        address beneficiaryAddr;\r\n        address ownerId;\r\n        uint time;\r\n    }\r\n\r\n    Donation[] public DonationList;\r\n    Owner public owner;\r\n    mapping(address => bool) doesOwnExist;\r\n    Beneficiary[] public beneficiaries;\r\n    mapping(address => bool) doesBenExist;\r\n    Payment[] public PaymentList;\r\n                                        \r\n    constructor (string memory _ownerName) {\r\n        owner.name.push(_ownerName);\r\n        owner.ownerAddr.push(msg.sender);\r\n        owner.funds = 0;\r\n        owner.requiredFunds =0;\r\n        doesOwnExist[msg.sender] = true;\r\n    }\r\n\r\n    function addBeneficiary(string memory _name, address accNo, uint required) public{\r\n        require(doesOwnExist[msg.sender] == true, \"Permission Denied, Not an Owner\");\r\n        require(doesBenExist[accNo] == false, \"Beneficiary already exist\");\r\n        beneficiaries.push(Beneficiary({\r\n            name : _name,\r\n            addr : accNo,\r\n            bReq : required,\r\n            bLeft: required\r\n            }\r\n        ));\r\n        owner.requiredFunds += required;\r\n        doesBenExist[accNo] = true;\r\n    }\r\n\r\n    function deleteBeneficiary(address accountNum) public {\r\n        require(doesBenExist[accountNum] == true, \"Beneficiary doesn't exist.\");\r\n        uint index = 0;\r\n        for (uint i=0; i< beneficiaries.length; i++) {\r\n            if (accountNum == beneficiaries[i].addr) {\r\n                index = i;\r\n                break;\r\n            }\r\n        }\r\n\r\n        beneficiaries[index] = beneficiaries[beneficiaries.length - 1];\r\n        owner.requiredFunds = owner.requiredFunds - beneficiaries[index].bReq;\r\n        beneficiaries.pop();\r\n        doesBenExist[accountNum] = false;\r\n    }\r\n\r\n    function makeDonation(\r\n            string memory _donorName \r\n        ) public payable returns(string memory)\r\n    {\r\n        if (msg.value < 1 gwei) {\r\n            revert(\"Not enough donation to record\");\r\n        }\r\n\r\n        owner.funds += msg.value;\r\n        \r\n        DonationList.push(Donation({\r\n            donorName: _donorName,\r\n            donorAddr: msg.sender,\r\n            donateAmount: msg.value,\r\n            time: block.timestamp\r\n        }));\r\n        totalCollection += msg.value;\r\n        return \"Made a donation!\" ;\r\n    }\r\n\r\n    function getCollectedFund() public view returns (uint){\r\n        return owner.funds;\r\n    }\r\n\r\n    function getRequiredFund() public view returns (uint){\r\n        return owner.requiredFunds - owner.funds;\r\n    }\r\n\r\n    function findBeneficiary(address accountId) public view returns (string memory result){\r\n        require(doesBenExist[accountId] == true, \"Beneficiary does not exist\");\r\n\r\n        for (uint i=0; i< beneficiaries.length; i++) {\r\n            if (accountId == beneficiaries[i].addr) {\r\n                return beneficiaries[i].name;\r\n            }\r\n        }\r\n    }\r\n\r\n    function payBeneficiary(address payable accountId, uint fund) external{\r\n        require(doesOwnExist[msg.sender] == true, \"Permission Denied, Not an Owner\");\r\n        require(doesBenExist[accountId] == true, \"Beneficiary doesn't exist.\");\r\n\r\n        uint index = 0;\r\n        for (uint i=0; i< beneficiaries.length; i++) {\r\n            if (accountId == beneficiaries[i].addr) {\r\n                index = i;\r\n                break;\r\n            }\r\n        }\r\n        uint payAmount = fund;\r\n        if(beneficiaries[index].bLeft <= fund){\r\n            payAmount = beneficiaries[index].bLeft;\r\n        }\r\n\r\n        beneficiaries[index].bLeft = beneficiaries[index].bLeft - payAmount;\r\n        \r\n        owner.funds = owner.funds - payAmount;\r\n        owner.requiredFunds = owner.requiredFunds - payAmount;\r\n \r\n        PaymentList.push(Payment({\r\n            paidAmount: payAmount,\r\n            beneficiaryAddr: accountId,\r\n            ownerId: msg.sender,\r\n            time: block.timestamp\r\n        }));\r\n\r\n        accountId.transfer(payAmount);\r\n\r\n    }\r\n    \r\n}",
  "sourcePath": "D:\\courses\\sem7\\blockchain_tech\\svelte-dapp\\contracts\\TrustedDonations.sol",
  "compiler": {
    "name": "solc",
    "version": "0.8.14+commit.80d49f37.Emscripten.clang"
  },
  "schemaVersion": "3.4.11",
  "updatedAt": "2022-12-08T06:31:24.202Z",
  "devdoc": {
    "author": "The name of the author",
    "details": "Explain to a developer any extra details",
    "kind": "dev",
    "methods": {},
    "title": "A title that should describe the contract/interface",
    "version": 1
  },
  "userdoc": {
    "kind": "user",
    "methods": {},
    "notice": "Explain to an end user what this does",
    "version": 1
  }
}