{
  "contractName": "TrustedDonations",
  "abi": [
    {
      "inputs": [
        {
          "internalType": "string",
          "name": "_ownerName",
          "type": "string"
        }
      ],
      "stateMutability": "nonpayable",
      "type": "constructor"
    },
    {
      "inputs": [
        {
          "internalType": "uint256",
          "name": "",
          "type": "uint256"
        }
      ],
      "name": "DonationList",
      "outputs": [
        {
          "internalType": "uint256",
          "name": "donateAmount",
          "type": "uint256"
        },
        {
          "internalType": "address",
          "name": "donorAddr",
          "type": "address"
        },
        {
          "internalType": "string",
          "name": "donorName",
          "type": "string"
        },
        {
          "internalType": "uint256",
          "name": "time",
          "type": "uint256"
        }
      ],
      "stateMutability": "view",
      "type": "function",
      "constant": true
    },
    {
      "inputs": [
        {
          "internalType": "uint256",
          "name": "",
          "type": "uint256"
        }
      ],
      "name": "PaymentList",
      "outputs": [
        {
          "internalType": "uint256",
          "name": "paidAmount",
          "type": "uint256"
        },
        {
          "internalType": "address",
          "name": "beneficiaryAddr",
          "type": "address"
        },
        {
          "internalType": "address",
          "name": "ownerId",
          "type": "address"
        },
        {
          "internalType": "uint256",
          "name": "time",
          "type": "uint256"
        }
      ],
      "stateMutability": "view",
      "type": "function",
      "constant": true
    },
    {
      "inputs": [
        {
          "internalType": "uint256",
          "name": "",
          "type": "uint256"
        }
      ],
      "name": "beneficiaries",
      "outputs": [
        {
          "internalType": "string",
          "name": "name",
          "type": "string"
        },
        {
          "internalType": "address",
          "name": "addr",
          "type": "address"
        },
        {
          "internalType": "uint256",
          "name": "bReq",
          "type": "uint256"
        },
        {
          "internalType": "uint256",
          "name": "bLeft",
          "type": "uint256"
        }
      ],
      "stateMutability": "view",
      "type": "function",
      "constant": true
    },
    {
      "inputs": [],
      "name": "owner",
      "outputs": [
        {
          "internalType": "uint256",
          "name": "funds",
          "type": "uint256"
        },
        {
          "internalType": "uint256",
          "name": "requiredFunds",
          "type": "uint256"
        }
      ],
      "stateMutability": "view",
      "type": "function",
      "constant": true
    },
    {
      "inputs": [],
      "name": "requirement",
      "outputs": [
        {
          "internalType": "uint256",
          "name": "",
          "type": "uint256"
        }
      ],
      "stateMutability": "view",
      "type": "function",
      "constant": true
    },
    {
      "inputs": [],
      "name": "totalBeneficiaries",
      "outputs": [
        {
          "internalType": "uint256",
          "name": "",
          "type": "uint256"
        }
      ],
      "stateMutability": "view",
      "type": "function",
      "constant": true
    },
    {
      "inputs": [],
      "name": "totalCharity",
      "outputs": [
        {
          "internalType": "uint256",
          "name": "",
          "type": "uint256"
        }
      ],
      "stateMutability": "view",
      "type": "function",
      "constant": true
    },
    {
      "inputs": [],
      "name": "totalCollection",
      "outputs": [
        {
          "internalType": "uint256",
          "name": "",
          "type": "uint256"
        }
      ],
      "stateMutability": "view",
      "type": "function",
      "constant": true
    },
    {
      "inputs": [],
      "name": "totalDonations",
      "outputs": [
        {
          "internalType": "uint256",
          "name": "",
          "type": "uint256"
        }
      ],
      "stateMutability": "view",
      "type": "function",
      "constant": true
    },
    {
      "inputs": [
        {
          "internalType": "string",
          "name": "_name",
          "type": "string"
        },
        {
          "internalType": "address",
          "name": "accNo",
          "type": "address"
        },
        {
          "internalType": "uint256",
          "name": "required",
          "type": "uint256"
        }
      ],
      "name": "addBeneficiary",
      "outputs": [],
      "stateMutability": "nonpayable",
      "type": "function"
    },
    {
      "inputs": [
        {
          "internalType": "address",
          "name": "accountNum",
          "type": "address"
        }
      ],
      "name": "deleteBeneficiary",
      "outputs": [],
      "stateMutability": "nonpayable",
      "type": "function"
    },
    {
      "inputs": [
        {
          "internalType": "string",
          "name": "_donorName",
          "type": "string"
        }
      ],
      "name": "makeDonation",
      "outputs": [
        {
          "internalType": "string",
          "name": "",
          "type": "string"
        }
      ],
      "stateMutability": "payable",
      "type": "function",
      "payable": true
    },
    {
      "inputs": [],
      "name": "getCollectedFund",
      "outputs": [
        {
          "internalType": "uint256",
          "name": "",
          "type": "uint256"
        }
      ],
      "stateMutability": "view",
      "type": "function",
      "constant": true
    },
    {
      "inputs": [],
      "name": "getRequiredFund",
      "outputs": [
        {
          "internalType": "uint256",
          "name": "",
          "type": "uint256"
        }
      ],
      "stateMutability": "view",
      "type": "function",
      "constant": true
    },
    {
      "inputs": [
        {
          "internalType": "address",
          "name": "accountId",
          "type": "address"
        }
      ],
      "name": "findBeneficiary",
      "outputs": [
        {
          "internalType": "string",
          "name": "result",
          "type": "string"
        }
      ],
      "stateMutability": "view",
      "type": "function",
      "constant": true
    },
    {
      "inputs": [
        {
          "internalType": "address payable",
          "name": "accountId",
          "type": "address"
        },
        {
          "internalType": "uint256",
          "name": "fund",
          "type": "uint256"
        }
      ],
      "name": "payBeneficiary",
      "outputs": [],
      "stateMutability": "nonpayable",
      "type": "function"
    }
  ],
  "bytecode": "0x60806040526000805560006001553480156200001a57600080fd5b50604051620023e4380380620023e48339818101604052810190620000409190620003b9565b600660000181908060018154018082558091505060019003906000526020600020016000909190919091509080519060200190620000809291906200016c565b506006600101339080600181540180825580915050600190039060005260206000200160009091909190916101000a81548173ffffffffffffffffffffffffffffffffffffffff021916908373ffffffffffffffffffffffffffffffffffffffff160217905550600060066002018190555060006006600301819055506001600a60003373ffffffffffffffffffffffffffffffffffffffff1673ffffffffffffffffffffffffffffffffffffffff16815260200190815260200160002060006101000a81548160ff02191690831515021790555060006003819055506000600281905550506200046e565b8280546200017a9062000439565b90600052602060002090601f0160209004810192826200019e5760008555620001ea565b82601f10620001b957805160ff1916838001178555620001ea565b82800160010185558215620001ea579182015b82811115620001e9578251825591602001919060010190620001cc565b5b509050620001f99190620001fd565b5090565b5b8082111562000218576000816000905550600101620001fe565b5090565b6000604051905090565b600080fd5b600080fd5b600080fd5b600080fd5b6000601f19601f8301169050919050565b7f4e487b7100000000000000000000000000000000000000000000000000000000600052604160045260246000fd5b62000285826200023a565b810181811067ffffffffffffffff82111715620002a757620002a66200024b565b5b80604052505050565b6000620002bc6200021c565b9050620002ca82826200027a565b919050565b600067ffffffffffffffff821115620002ed57620002ec6200024b565b5b620002f8826200023a565b9050602081019050919050565b60005b838110156200032557808201518184015260208101905062000308565b8381111562000335576000848401525b50505050565b6000620003526200034c84620002cf565b620002b0565b90508281526020810184848401111562000371576200037062000235565b5b6200037e84828562000305565b509392505050565b600082601f8301126200039e576200039d62000230565b5b8151620003b08482602086016200033b565b91505092915050565b600060208284031215620003d257620003d162000226565b5b600082015167ffffffffffffffff811115620003f357620003f26200022b565b5b620004018482850162000386565b91505092915050565b7f4e487b7100000000000000000000000000000000000000000000000000000000600052602260045260246000fd5b600060028204905060018216806200045257607f821691505b6020821081036200046857620004676200040a565b5b50919050565b611f66806200047e6000396000f3fe6080604052600436106100f35760003560e01c8063b75639301161008a578063d7fcf45611610059578063d7fcf45614610333578063de2ed89314610363578063e107a3241461038e578063efeb5e58146103b9576100f3565b8063b756393014610287578063cd696a11146102b2578063d01a69c9146102dd578063d608b3b214610308576100f3565b806375af4ec0116100c657806375af4ec0146101b55780637d3bca76146101f55780638287e61e1461021e5780638da5cb5b1461025b576100f3565b806310ecec72146100f857806342b42240146101385780634b91058a1461016357806372ec45a81461018c575b600080fd5b34801561010457600080fd5b5061011f600480360381019061011a919061160f565b6103f9565b60405161012f949392919061168c565b60405180910390f35b34801561014457600080fd5b5061014d610479565b60405161015a91906116d1565b60405180910390f35b34801561016f57600080fd5b5061018a6004803603810190610185919061172a565b61047f565b005b34801561019857600080fd5b506101b360048036038101906101ae91906118dc565b6108b3565b005b3480156101c157600080fd5b506101dc60048036038101906101d7919061160f565b610b46565b6040516101ec94939291906119d3565b60405180910390f35b34801561020157600080fd5b5061021c60048036038101906102179190611a1f565b610c2e565b005b34801561022a57600080fd5b5061024560048036038101906102409190611a1f565b610f7e565b6040516102529190611a4c565b60405180910390f35b34801561026757600080fd5b5061027061116b565b60405161027e929190611a6e565b60405180910390f35b34801561029357600080fd5b5061029c61117d565b6040516102a991906116d1565b60405180910390f35b3480156102be57600080fd5b506102c7611183565b6040516102d491906116d1565b60405180910390f35b3480156102e957600080fd5b506102f26111a0565b6040516102ff91906116d1565b60405180910390f35b34801561031457600080fd5b5061031d6111a6565b60405161032a91906116d1565b60405180910390f35b61034d60048036038101906103489190611a97565b6111ac565b60405161035a9190611a4c565b60405180910390f35b34801561036f57600080fd5b5061037861135a565b60405161038591906116d1565b60405180910390f35b34801561039a57600080fd5b506103a3611360565b6040516103b091906116d1565b60405180910390f35b3480156103c557600080fd5b506103e060048036038101906103db919061160f565b61136d565b6040516103f09493929190611ae0565b60405180910390f35b600d818154811061040957600080fd5b90600052602060002090600402016000915090508060000154908060010160009054906101000a900473ffffffffffffffffffffffffffffffffffffffff16908060020160009054906101000a900473ffffffffffffffffffffffffffffffffffffffff16908060030154905084565b60005481565b60011515600a60003373ffffffffffffffffffffffffffffffffffffffff1673ffffffffffffffffffffffffffffffffffffffff16815260200190815260200160002060009054906101000a900460ff16151514610512576040517f08c379a000000000000000000000000000000000000000000000000000000000815260040161050990611b78565b60405180910390fd5b60011515600c60008473ffffffffffffffffffffffffffffffffffffffff1673ffffffffffffffffffffffffffffffffffffffff16815260200190815260200160002060009054906101000a900460ff161515146105a5576040517f08c379a000000000000000000000000000000000000000000000000000000000815260040161059c90611be4565b60405180910390fd5b6000805b600b8054905081101561064957600b81815481106105ca576105c9611c04565b5b906000526020600020906004020160010160009054906101000a900473ffffffffffffffffffffffffffffffffffffffff1673ffffffffffffffffffffffffffffffffffffffff168473ffffffffffffffffffffffffffffffffffffffff160361063657809150610649565b808061064190611c62565b9150506105a9565b50600082905082600b838154811061066457610663611c04565b5b906000526020600020906004020160030154116106a457600b828154811061068f5761068e611c04565b5b90600052602060002090600402016003015490505b80600b83815481106106b9576106b8611c04565b5b9060005260206000209060040201600301546106d59190611caa565b600b83815481106106e9576106e8611c04565b5b9060005260206000209060040201600301819055508060066002015461070f9190611caa565b600660020181905550806006600301546107299190611caa565b600660030181905550600d60405180608001604052808381526020018673ffffffffffffffffffffffffffffffffffffffff1681526020013373ffffffffffffffffffffffffffffffffffffffff1681526020014281525090806001815401808255809150506001900390600052602060002090600402016000909190919091506000820151816000015560208201518160010160006101000a81548173ffffffffffffffffffffffffffffffffffffffff021916908373ffffffffffffffffffffffffffffffffffffffff16021790555060408201518160020160006101000a81548173ffffffffffffffffffffffffffffffffffffffff021916908373ffffffffffffffffffffffffffffffffffffffff1602179055506060820151816003015550506003600081548092919061086190611c62565b91905055508373ffffffffffffffffffffffffffffffffffffffff166108fc829081150290604051600060405180830381858888f193505050501580156108ac573d6000803e3d6000fd5b5050505050565b60011515600a60003373ffffffffffffffffffffffffffffffffffffffff1673ffffffffffffffffffffffffffffffffffffffff16815260200190815260200160002060009054906101000a900460ff16151514610946576040517f08c379a000000000000000000000000000000000000000000000000000000000815260040161093d90611b78565b60405180910390fd5b60001515600c60008473ffffffffffffffffffffffffffffffffffffffff1673ffffffffffffffffffffffffffffffffffffffff16815260200190815260200160002060009054906101000a900460ff161515146109d9576040517f08c379a00000000000000000000000000000000000000000000000000000000081526004016109d090611d2a565b60405180910390fd5b600b60405180608001604052808581526020018473ffffffffffffffffffffffffffffffffffffffff1681526020018381526020018381525090806001815401808255809150506001900390600052602060002090600402016000909190919091506000820151816000019080519060200190610a57929190611455565b5060208201518160010160006101000a81548173ffffffffffffffffffffffffffffffffffffffff021916908373ffffffffffffffffffffffffffffffffffffffff160217905550604082015181600201556060820151816003015550508060066003016000828254610aca9190611d4a565b925050819055506001600c60008473ffffffffffffffffffffffffffffffffffffffff1673ffffffffffffffffffffffffffffffffffffffff16815260200190815260200160002060006101000a81548160ff02191690831515021790555060046000815480929190610b3c90611c62565b9190505550505050565b60058181548110610b5657600080fd5b90600052602060002090600402016000915090508060000154908060010160009054906101000a900473ffffffffffffffffffffffffffffffffffffffff1690806002018054610ba590611dcf565b80601f0160208091040260200160405190810160405280929190818152602001828054610bd190611dcf565b8015610c1e5780601f10610bf357610100808354040283529160200191610c1e565b820191906000526020600020905b815481529060010190602001808311610c0157829003601f168201915b5050505050908060030154905084565b60011515600c60008373ffffffffffffffffffffffffffffffffffffffff1673ffffffffffffffffffffffffffffffffffffffff16815260200190815260200160002060009054906101000a900460ff16151514610cc1576040517f08c379a0000000000000000000000000000000000000000000000000000000008152600401610cb890611be4565b60405180910390fd5b6000805b600b80549050811015610d6557600b8181548110610ce657610ce5611c04565b5b906000526020600020906004020160010160009054906101000a900473ffffffffffffffffffffffffffffffffffffffff1673ffffffffffffffffffffffffffffffffffffffff168373ffffffffffffffffffffffffffffffffffffffff1603610d5257809150610d65565b8080610d5d90611c62565b915050610cc5565b50600b6001600b80549050610d7a9190611caa565b81548110610d8b57610d8a611c04565b5b9060005260206000209060040201600b8281548110610dad57610dac611c04565b5b90600052602060002090600402016000820181600001908054610dcf90611dcf565b610dda9291906114db565b506001820160009054906101000a900473ffffffffffffffffffffffffffffffffffffffff168160010160006101000a81548173ffffffffffffffffffffffffffffffffffffffff021916908373ffffffffffffffffffffffffffffffffffffffff1602179055506002820154816002015560038201548160030155905050600b8181548110610e6d57610e6c611c04565b5b906000526020600020906004020160020154600660030154610e8f9190611caa565b600660030181905550600b805480610eaa57610ea9611e00565b5b600190038181906000526020600020906004020160008082016000610ecf9190611568565b6001820160006101000a81549073ffffffffffffffffffffffffffffffffffffffff021916905560028201600090556003820160009055505090556000600c60008473ffffffffffffffffffffffffffffffffffffffff1673ffffffffffffffffffffffffffffffffffffffff16815260200190815260200160002060006101000a81548160ff02191690831515021790555060046000815480929190610f7590611e2f565b91905055505050565b606060011515600c60008473ffffffffffffffffffffffffffffffffffffffff1673ffffffffffffffffffffffffffffffffffffffff16815260200190815260200160002060009054906101000a900460ff16151514611013576040517f08c379a000000000000000000000000000000000000000000000000000000000815260040161100a90611ea4565b60405180910390fd5b60005b600b8054905081101561116457600b818154811061103757611036611c04565b5b906000526020600020906004020160010160009054906101000a900473ffffffffffffffffffffffffffffffffffffffff1673ffffffffffffffffffffffffffffffffffffffff168373ffffffffffffffffffffffffffffffffffffffff160361115157600b81815481106110af576110ae611c04565b5b906000526020600020906004020160000180546110cb90611dcf565b80601f01602080910402602001604051908101604052809291908181526020018280546110f790611dcf565b80156111445780601f1061111957610100808354040283529160200191611144565b820191906000526020600020905b81548152906001019060200180831161112757829003601f168201915b5050505050915050611166565b808061115c90611c62565b915050611016565b505b919050565b60068060020154908060030154905082565b60015481565b600060066002015460066003015461119b9190611caa565b905090565b60045481565b60035481565b6060633b9aca003410156111f5576040517f08c379a00000000000000000000000000000000000000000000000000000000081526004016111ec90611f10565b60405180910390fd5b346006600201600082825461120a9190611d4a565b92505081905550600560405180608001604052803481526020013373ffffffffffffffffffffffffffffffffffffffff1681526020018481526020014281525090806001815401808255809150506001900390600052602060002090600402016000909190919091506000820151816000015560208201518160010160006101000a81548173ffffffffffffffffffffffffffffffffffffffff021916908373ffffffffffffffffffffffffffffffffffffffff16021790555060408201518160020190805190602001906112e0929190611455565b50606082015181600301555050346000808282546112fe9190611d4a565b925050819055506002600081548092919061131890611c62565b91905055506040518060400160405280601081526020017f4d616465206120646f6e6174696f6e21000000000000000000000000000000008152509050919050565b60025481565b6000600660020154905090565b600b818154811061137d57600080fd5b90600052602060002090600402016000915090508060000180546113a090611dcf565b80601f01602080910402602001604051908101604052809291908181526020018280546113cc90611dcf565b80156114195780601f106113ee57610100808354040283529160200191611419565b820191906000526020600020905b8154815290600101906020018083116113fc57829003601f168201915b5050505050908060010160009054906101000a900473ffffffffffffffffffffffffffffffffffffffff16908060020154908060030154905084565b82805461146190611dcf565b90600052602060002090601f01602090048101928261148357600085556114ca565b82601f1061149c57805160ff19168380011785556114ca565b828001600101855582156114ca579182015b828111156114c95782518255916020019190600101906114ae565b5b5090506114d791906115a8565b5090565b8280546114e790611dcf565b90600052602060002090601f0160209004810192826115095760008555611557565b82601f1061151a5780548555611557565b8280016001018555821561155757600052602060002091601f016020900482015b8281111561155657825482559160010191906001019061153b565b5b50905061156491906115a8565b5090565b50805461157490611dcf565b6000825580601f1061158657506115a5565b601f0160209004906000526020600020908101906115a491906115a8565b5b50565b5b808211156115c15760008160009055506001016115a9565b5090565b6000604051905090565b600080fd5b600080fd5b6000819050919050565b6115ec816115d9565b81146115f757600080fd5b50565b600081359050611609816115e3565b92915050565b600060208284031215611625576116246115cf565b5b6000611633848285016115fa565b91505092915050565b611645816115d9565b82525050565b600073ffffffffffffffffffffffffffffffffffffffff82169050919050565b60006116768261164b565b9050919050565b6116868161166b565b82525050565b60006080820190506116a1600083018761163c565b6116ae602083018661167d565b6116bb604083018561167d565b6116c8606083018461163c565b95945050505050565b60006020820190506116e6600083018461163c565b92915050565b60006116f78261164b565b9050919050565b611707816116ec565b811461171257600080fd5b50565b600081359050611724816116fe565b92915050565b60008060408385031215611741576117406115cf565b5b600061174f85828601611715565b9250506020611760858286016115fa565b9150509250929050565b600080fd5b600080fd5b6000601f19601f8301169050919050565b7f4e487b7100000000000000000000000000000000000000000000000000000000600052604160045260246000fd5b6117bd82611774565b810181811067ffffffffffffffff821117156117dc576117db611785565b5b80604052505050565b60006117ef6115c5565b90506117fb82826117b4565b919050565b600067ffffffffffffffff82111561181b5761181a611785565b5b61182482611774565b9050602081019050919050565b82818337600083830152505050565b600061185361184e84611800565b6117e5565b90508281526020810184848401111561186f5761186e61176f565b5b61187a848285611831565b509392505050565b600082601f8301126118975761189661176a565b5b81356118a7848260208601611840565b91505092915050565b6118b98161166b565b81146118c457600080fd5b50565b6000813590506118d6816118b0565b92915050565b6000806000606084860312156118f5576118f46115cf565b5b600084013567ffffffffffffffff811115611913576119126115d4565b5b61191f86828701611882565b9350506020611930868287016118c7565b9250506040611941868287016115fa565b9150509250925092565b600081519050919050565b600082825260208201905092915050565b60005b8381101561198557808201518184015260208101905061196a565b83811115611994576000848401525b50505050565b60006119a58261194b565b6119af8185611956565b93506119bf818560208601611967565b6119c881611774565b840191505092915050565b60006080820190506119e8600083018761163c565b6119f5602083018661167d565b8181036040830152611a07818561199a565b9050611a16606083018461163c565b95945050505050565b600060208284031215611a3557611a346115cf565b5b6000611a43848285016118c7565b91505092915050565b60006020820190508181036000830152611a66818461199a565b905092915050565b6000604082019050611a83600083018561163c565b611a90602083018461163c565b9392505050565b600060208284031215611aad57611aac6115cf565b5b600082013567ffffffffffffffff811115611acb57611aca6115d4565b5b611ad784828501611882565b91505092915050565b60006080820190508181036000830152611afa818761199a565b9050611b09602083018661167d565b611b16604083018561163c565b611b23606083018461163c565b95945050505050565b7f5065726d697373696f6e2044656e6965642c204e6f7420616e204f776e657200600082015250565b6000611b62601f83611956565b9150611b6d82611b2c565b602082019050919050565b60006020820190508181036000830152611b9181611b55565b9050919050565b7f42656e656669636961727920646f65736e27742065786973742e000000000000600082015250565b6000611bce601a83611956565b9150611bd982611b98565b602082019050919050565b60006020820190508181036000830152611bfd81611bc1565b9050919050565b7f4e487b7100000000000000000000000000000000000000000000000000000000600052603260045260246000fd5b7f4e487b7100000000000000000000000000000000000000000000000000000000600052601160045260246000fd5b6000611c6d826115d9565b91507fffffffffffffffffffffffffffffffffffffffffffffffffffffffffffffffff8203611c9f57611c9e611c33565b5b600182019050919050565b6000611cb5826115d9565b9150611cc0836115d9565b925082821015611cd357611cd2611c33565b5b828203905092915050565b7f42656e656669636961727920616c726561647920657869737400000000000000600082015250565b6000611d14601983611956565b9150611d1f82611cde565b602082019050919050565b60006020820190508181036000830152611d4381611d07565b9050919050565b6000611d55826115d9565b9150611d60836115d9565b9250827fffffffffffffffffffffffffffffffffffffffffffffffffffffffffffffffff03821115611d9557611d94611c33565b5b828201905092915050565b7f4e487b7100000000000000000000000000000000000000000000000000000000600052602260045260246000fd5b60006002820490506001821680611de757607f821691505b602082108103611dfa57611df9611da0565b5b50919050565b7f4e487b7100000000000000000000000000000000000000000000000000000000600052603160045260246000fd5b6000611e3a826115d9565b915060008203611e4d57611e4c611c33565b5b600182039050919050565b7f42656e656669636961727920646f6573206e6f74206578697374000000000000600082015250565b6000611e8e601a83611956565b9150611e9982611e58565b602082019050919050565b60006020820190508181036000830152611ebd81611e81565b9050919050565b7f4e6f7420656e6f75676820646f6e6174696f6e20746f207265636f7264000000600082015250565b6000611efa601d83611956565b9150611f0582611ec4565b602082019050919050565b60006020820190508181036000830152611f2981611eed565b905091905056fea2646970667358221220eeb395f899c37208ed3699b5060eab769f31c9d92df7bdec539c3f3932a08bbb64736f6c634300080e0033",
  "immutableReferences": {},
  "source": "// SPDX-License-Identifier: MIT\r\npragma solidity >=0.7.0 <0.9.0;\r\n\r\n/// @title A title that should describe the contract/interface\r\n/// @author The name of the author\r\n/// @notice Explain to an end user what this does\r\n/// @dev Explain to a developer any extra details\r\ncontract TrustedDonations {\r\n    uint public totalCollection=0;\r\n    uint public requirement=0;\r\n\r\n    uint public totalDonations;\r\n    uint public totalCharity;\r\n    uint public totalBeneficiaries;\r\n\r\n    struct Donation {\r\n        uint donateAmount;\r\n        address donorAddr;\r\n        string donorName;\r\n        uint time;\r\n    }\r\n\r\n    struct Owner{                                                                \r\n        string[] name;\r\n        address[] ownerAddr;\r\n        uint funds;\r\n        uint requiredFunds;\r\n    }\r\n\r\n    struct Beneficiary{\r\n        string name;\r\n        address addr;\r\n        uint bReq;\r\n        uint bLeft;\r\n    }\r\n\r\n    struct Payment{\r\n        uint paidAmount;\r\n        address beneficiaryAddr;\r\n        address ownerId;\r\n        uint time;\r\n    }\r\n\r\n    Donation[] public DonationList;\r\n    Owner public owner;\r\n    mapping(address => bool) doesOwnExist;\r\n    Beneficiary[] public beneficiaries;\r\n    mapping(address => bool) doesBenExist;\r\n    Payment[] public PaymentList;\r\n                                        \r\n    constructor (string memory _ownerName) {\r\n        owner.name.push(_ownerName);\r\n        owner.ownerAddr.push(msg.sender);\r\n        owner.funds = 0;\r\n        owner.requiredFunds =0;\r\n        doesOwnExist[msg.sender] = true;\r\n\r\n        totalCharity = 0;\r\n        totalDonations = 0;\r\n    }\r\n\r\n    function addBeneficiary(string memory _name, address accNo, uint required) public{\r\n        require(doesOwnExist[msg.sender] == true, \"Permission Denied, Not an Owner\");\r\n        require(doesBenExist[accNo] == false, \"Beneficiary already exist\");\r\n        beneficiaries.push(Beneficiary({\r\n            name : _name,\r\n            addr : accNo,\r\n            bReq : required,\r\n            bLeft: required\r\n            }\r\n        ));\r\n        owner.requiredFunds += required;\r\n        doesBenExist[accNo] = true;\r\n        totalBeneficiaries++;\r\n    }\r\n\r\n    function deleteBeneficiary(address accountNum) public {\r\n        require(doesBenExist[accountNum] == true, \"Beneficiary doesn't exist.\");\r\n        uint index = 0;\r\n        for (uint i=0; i< beneficiaries.length; i++) {\r\n            if (accountNum == beneficiaries[i].addr) {\r\n                index = i;\r\n                break;\r\n            }\r\n        }\r\n\r\n        beneficiaries[index] = beneficiaries[beneficiaries.length - 1];\r\n        owner.requiredFunds = owner.requiredFunds - beneficiaries[index].bReq;\r\n        beneficiaries.pop();\r\n        doesBenExist[accountNum] = false;\r\n        totalBeneficiaries--;\r\n    }\r\n\r\n    function makeDonation(\r\n            string memory _donorName \r\n        ) public payable returns(string memory)\r\n    {\r\n        if (msg.value < 1 gwei) {\r\n            revert(\"Not enough donation to record\");\r\n        }\r\n\r\n        owner.funds += msg.value;\r\n        \r\n        DonationList.push(Donation({\r\n            donorName: _donorName,\r\n            donorAddr: msg.sender,\r\n            donateAmount: msg.value,\r\n            time: block.timestamp\r\n        }));\r\n        totalCollection += msg.value;\r\n        totalDonations++;\r\n        return \"Made a donation!\" ;\r\n    }\r\n\r\n    function getCollectedFund() public view returns (uint){\r\n        return owner.funds;\r\n    }\r\n\r\n    function getRequiredFund() public view returns (uint){\r\n        return owner.requiredFunds - owner.funds;\r\n    }\r\n\r\n    function findBeneficiary(address accountId) public view returns (string memory result){\r\n        require(doesBenExist[accountId] == true, \"Beneficiary does not exist\");\r\n\r\n        for (uint i=0; i< beneficiaries.length; i++) {\r\n            if (accountId == beneficiaries[i].addr) {\r\n                return beneficiaries[i].name;\r\n            }\r\n        }\r\n    }\r\n\r\n    function payBeneficiary(address payable accountId, uint fund) external{\r\n        require(doesOwnExist[msg.sender] == true, \"Permission Denied, Not an Owner\");\r\n        require(doesBenExist[accountId] == true, \"Beneficiary doesn't exist.\");\r\n\r\n        uint index = 0;\r\n        for (uint i=0; i< beneficiaries.length; i++) {\r\n            if (accountId == beneficiaries[i].addr) {\r\n                index = i;\r\n                break;\r\n            }\r\n        }\r\n        uint payAmount = fund;\r\n        if(beneficiaries[index].bLeft <= fund){\r\n            payAmount = beneficiaries[index].bLeft;\r\n        }\r\n\r\n        beneficiaries[index].bLeft = beneficiaries[index].bLeft - payAmount;\r\n        \r\n        owner.funds = owner.funds - payAmount;\r\n        owner.requiredFunds = owner.requiredFunds - payAmount;\r\n \r\n        PaymentList.push(Payment({\r\n            paidAmount: payAmount,\r\n            beneficiaryAddr: accountId,\r\n            ownerId: msg.sender,\r\n            time: block.timestamp\r\n        }));\r\n\r\n        totalCharity++;\r\n        accountId.transfer(payAmount);\r\n\r\n    }\r\n    \r\n}",
  "sourcePath": "D:\\courses\\sem7\\blockchain_tech\\svelte-dapp\\contracts\\TrustedDonations.sol",
  "compiler": {
    "name": "solc",
    "version": "0.8.14+commit.80d49f37.Emscripten.clang"
  },
  "schemaVersion": "3.4.11",
  "updatedAt": "2022-12-10T09:48:23.378Z",
  "networkType": "ethereum",
  "devdoc": {
    "author": "The name of the author",
    "details": "Explain to a developer any extra details",
    "kind": "dev",
    "methods": {},
    "title": "A title that should describe the contract/interface",
    "version": 1
  },
  "userdoc": {
    "kind": "user",
    "methods": {},
    "notice": "Explain to an end user what this does",
    "version": 1
  }
}