{
  "contractName": "TrustedDonations",
  "abi": [
    {
      "inputs": [
        {
          "internalType": "string",
          "name": "_ownerName",
          "type": "string"
        }
      ],
      "stateMutability": "nonpayable",
      "type": "constructor"
    },
    {
      "inputs": [
        {
          "internalType": "uint256",
          "name": "",
          "type": "uint256"
        }
      ],
      "name": "DonationList",
      "outputs": [
        {
          "internalType": "uint256",
          "name": "donateAmount",
          "type": "uint256"
        },
        {
          "internalType": "address",
          "name": "donorAddr",
          "type": "address"
        },
        {
          "internalType": "string",
          "name": "donorName",
          "type": "string"
        },
        {
          "internalType": "uint256",
          "name": "time",
          "type": "uint256"
        }
      ],
      "stateMutability": "view",
      "type": "function",
      "constant": true
    },
    {
      "inputs": [
        {
          "internalType": "uint256",
          "name": "",
          "type": "uint256"
        }
      ],
      "name": "PaymentList",
      "outputs": [
        {
          "internalType": "uint256",
          "name": "paidAmount",
          "type": "uint256"
        },
        {
          "internalType": "address",
          "name": "beneficiaryAddr",
          "type": "address"
        },
        {
          "internalType": "address",
          "name": "ownerId",
          "type": "address"
        },
        {
          "internalType": "uint256",
          "name": "time",
          "type": "uint256"
        }
      ],
      "stateMutability": "view",
      "type": "function",
      "constant": true
    },
    {
      "inputs": [
        {
          "internalType": "uint256",
          "name": "",
          "type": "uint256"
        }
      ],
      "name": "beneficiaries",
      "outputs": [
        {
          "internalType": "string",
          "name": "name",
          "type": "string"
        },
        {
          "internalType": "address",
          "name": "addr",
          "type": "address"
        },
        {
          "internalType": "uint256",
          "name": "bReq",
          "type": "uint256"
        },
        {
          "internalType": "uint256",
          "name": "bLeft",
          "type": "uint256"
        }
      ],
      "stateMutability": "view",
      "type": "function",
      "constant": true
    },
    {
      "inputs": [],
      "name": "owner",
      "outputs": [
        {
          "internalType": "uint256",
          "name": "funds",
          "type": "uint256"
        },
        {
          "internalType": "uint256",
          "name": "requiredFunds",
          "type": "uint256"
        }
      ],
      "stateMutability": "view",
      "type": "function",
      "constant": true
    },
    {
      "inputs": [],
      "name": "requirement",
      "outputs": [
        {
          "internalType": "uint256",
          "name": "",
          "type": "uint256"
        }
      ],
      "stateMutability": "view",
      "type": "function",
      "constant": true
    },
    {
      "inputs": [],
      "name": "totalCharity",
      "outputs": [
        {
          "internalType": "uint256",
          "name": "",
          "type": "uint256"
        }
      ],
      "stateMutability": "view",
      "type": "function",
      "constant": true
    },
    {
      "inputs": [],
      "name": "totalCollection",
      "outputs": [
        {
          "internalType": "uint256",
          "name": "",
          "type": "uint256"
        }
      ],
      "stateMutability": "view",
      "type": "function",
      "constant": true
    },
    {
      "inputs": [],
      "name": "totalDonations",
      "outputs": [
        {
          "internalType": "uint256",
          "name": "",
          "type": "uint256"
        }
      ],
      "stateMutability": "view",
      "type": "function",
      "constant": true
    },
    {
      "inputs": [
        {
          "internalType": "string",
          "name": "_name",
          "type": "string"
        },
        {
          "internalType": "address",
          "name": "accNo",
          "type": "address"
        },
        {
          "internalType": "uint256",
          "name": "required",
          "type": "uint256"
        }
      ],
      "name": "addBeneficiary",
      "outputs": [],
      "stateMutability": "nonpayable",
      "type": "function"
    },
    {
      "inputs": [
        {
          "internalType": "address",
          "name": "accountNum",
          "type": "address"
        }
      ],
      "name": "deleteBeneficiary",
      "outputs": [],
      "stateMutability": "nonpayable",
      "type": "function"
    },
    {
      "inputs": [
        {
          "internalType": "string",
          "name": "_donorName",
          "type": "string"
        }
      ],
      "name": "makeDonation",
      "outputs": [
        {
          "internalType": "string",
          "name": "",
          "type": "string"
        }
      ],
      "stateMutability": "payable",
      "type": "function",
      "payable": true
    },
    {
      "inputs": [],
      "name": "getCollectedFund",
      "outputs": [
        {
          "internalType": "uint256",
          "name": "",
          "type": "uint256"
        }
      ],
      "stateMutability": "view",
      "type": "function",
      "constant": true
    },
    {
      "inputs": [],
      "name": "getRequiredFund",
      "outputs": [
        {
          "internalType": "uint256",
          "name": "",
          "type": "uint256"
        }
      ],
      "stateMutability": "view",
      "type": "function",
      "constant": true
    },
    {
      "inputs": [
        {
          "internalType": "address",
          "name": "accountId",
          "type": "address"
        }
      ],
      "name": "findBeneficiary",
      "outputs": [
        {
          "internalType": "string",
          "name": "result",
          "type": "string"
        }
      ],
      "stateMutability": "view",
      "type": "function",
      "constant": true
    },
    {
      "inputs": [
        {
          "internalType": "address payable",
          "name": "accountId",
          "type": "address"
        },
        {
          "internalType": "uint256",
          "name": "fund",
          "type": "uint256"
        }
      ],
      "name": "payBeneficiary",
      "outputs": [],
      "stateMutability": "nonpayable",
      "type": "function"
    }
  ],
  "bytecode": "0x60806040526000805560006001553480156200001a57600080fd5b506040516200234f3803806200234f8339818101604052810190620000409190620003b9565b600560000181908060018154018082558091505060019003906000526020600020016000909190919091509080519060200190620000809291906200016c565b506005600101339080600181540180825580915050600190039060005260206000200160009091909190916101000a81548173ffffffffffffffffffffffffffffffffffffffff021916908373ffffffffffffffffffffffffffffffffffffffff160217905550600060056002018190555060006005600301819055506001600960003373ffffffffffffffffffffffffffffffffffffffff1673ffffffffffffffffffffffffffffffffffffffff16815260200190815260200160002060006101000a81548160ff02191690831515021790555060006003819055506000600281905550506200046e565b8280546200017a9062000439565b90600052602060002090601f0160209004810192826200019e5760008555620001ea565b82601f10620001b957805160ff1916838001178555620001ea565b82800160010185558215620001ea579182015b82811115620001e9578251825591602001919060010190620001cc565b5b509050620001f99190620001fd565b5090565b5b8082111562000218576000816000905550600101620001fe565b5090565b6000604051905090565b600080fd5b600080fd5b600080fd5b600080fd5b6000601f19601f8301169050919050565b7f4e487b7100000000000000000000000000000000000000000000000000000000600052604160045260246000fd5b62000285826200023a565b810181811067ffffffffffffffff82111715620002a757620002a66200024b565b5b80604052505050565b6000620002bc6200021c565b9050620002ca82826200027a565b919050565b600067ffffffffffffffff821115620002ed57620002ec6200024b565b5b620002f8826200023a565b9050602081019050919050565b60005b838110156200032557808201518184015260208101905062000308565b8381111562000335576000848401525b50505050565b6000620003526200034c84620002cf565b620002b0565b90508281526020810184848401111562000371576200037062000235565b5b6200037e84828562000305565b509392505050565b600082601f8301126200039e576200039d62000230565b5b8151620003b08482602086016200033b565b91505092915050565b600060208284031215620003d257620003d162000226565b5b600082015167ffffffffffffffff811115620003f357620003f26200022b565b5b620004018482850162000386565b91505092915050565b7f4e487b7100000000000000000000000000000000000000000000000000000000600052602260045260246000fd5b600060028204905060018216806200045257607f821691505b6020821081036200046857620004676200040a565b5b50919050565b611ed1806200047e6000396000f3fe6080604052600436106100e85760003560e01c80638da5cb5b1161008a578063d7fcf45611610059578063d7fcf456146102fd578063de2ed8931461032d578063e107a32414610358578063efeb5e5814610383576100e8565b80638da5cb5b14610250578063b75639301461027c578063cd696a11146102a7578063d608b3b2146102d2576100e8565b806372ec45a8116100c657806372ec45a81461018157806375af4ec0146101aa5780637d3bca76146101ea5780638287e61e14610213576100e8565b806310ecec72146100ed57806342b422401461012d5780634b91058a14610158575b600080fd5b3480156100f957600080fd5b50610114600480360381019061010f91906115a3565b6103c3565b6040516101249493929190611620565b60405180910390f35b34801561013957600080fd5b50610142610443565b60405161014f9190611665565b60405180910390f35b34801561016457600080fd5b5061017f600480360381019061017a91906116be565b610449565b005b34801561018d57600080fd5b506101a860048036038101906101a39190611870565b61087d565b005b3480156101b657600080fd5b506101d160048036038101906101cc91906115a3565b610af8565b6040516101e19493929190611967565b60405180910390f35b3480156101f657600080fd5b50610211600480360381019061020c91906119b3565b610be0565b005b34801561021f57600080fd5b5061023a600480360381019061023591906119b3565b610f18565b60405161024791906119e0565b60405180910390f35b34801561025c57600080fd5b50610265611105565b604051610273929190611a02565b60405180910390f35b34801561028857600080fd5b50610291611117565b60405161029e9190611665565b60405180910390f35b3480156102b357600080fd5b506102bc61111d565b6040516102c99190611665565b60405180910390f35b3480156102de57600080fd5b506102e761113a565b6040516102f49190611665565b60405180910390f35b61031760048036038101906103129190611a2b565b611140565b60405161032491906119e0565b60405180910390f35b34801561033957600080fd5b506103426112ee565b60405161034f9190611665565b60405180910390f35b34801561036457600080fd5b5061036d6112f4565b60405161037a9190611665565b60405180910390f35b34801561038f57600080fd5b506103aa60048036038101906103a591906115a3565b611301565b6040516103ba9493929190611a74565b60405180910390f35b600c81815481106103d357600080fd5b90600052602060002090600402016000915090508060000154908060010160009054906101000a900473ffffffffffffffffffffffffffffffffffffffff16908060020160009054906101000a900473ffffffffffffffffffffffffffffffffffffffff16908060030154905084565b60005481565b60011515600960003373ffffffffffffffffffffffffffffffffffffffff1673ffffffffffffffffffffffffffffffffffffffff16815260200190815260200160002060009054906101000a900460ff161515146104dc576040517f08c379a00000000000000000000000000000000000000000000000000000000081526004016104d390611b0c565b60405180910390fd5b60011515600b60008473ffffffffffffffffffffffffffffffffffffffff1673ffffffffffffffffffffffffffffffffffffffff16815260200190815260200160002060009054906101000a900460ff1615151461056f576040517f08c379a000000000000000000000000000000000000000000000000000000000815260040161056690611b78565b60405180910390fd5b6000805b600a8054905081101561061357600a818154811061059457610593611b98565b5b906000526020600020906004020160010160009054906101000a900473ffffffffffffffffffffffffffffffffffffffff1673ffffffffffffffffffffffffffffffffffffffff168473ffffffffffffffffffffffffffffffffffffffff160361060057809150610613565b808061060b90611bf6565b915050610573565b50600082905082600a838154811061062e5761062d611b98565b5b9060005260206000209060040201600301541161066e57600a828154811061065957610658611b98565b5b90600052602060002090600402016003015490505b80600a838154811061068357610682611b98565b5b90600052602060002090600402016003015461069f9190611c3e565b600a83815481106106b3576106b2611b98565b5b906000526020600020906004020160030181905550806005600201546106d99190611c3e565b600560020181905550806005600301546106f39190611c3e565b600560030181905550600c60405180608001604052808381526020018673ffffffffffffffffffffffffffffffffffffffff1681526020013373ffffffffffffffffffffffffffffffffffffffff1681526020014281525090806001815401808255809150506001900390600052602060002090600402016000909190919091506000820151816000015560208201518160010160006101000a81548173ffffffffffffffffffffffffffffffffffffffff021916908373ffffffffffffffffffffffffffffffffffffffff16021790555060408201518160020160006101000a81548173ffffffffffffffffffffffffffffffffffffffff021916908373ffffffffffffffffffffffffffffffffffffffff1602179055506060820151816003015550506003600081548092919061082b90611bf6565b91905055508373ffffffffffffffffffffffffffffffffffffffff166108fc829081150290604051600060405180830381858888f19350505050158015610876573d6000803e3d6000fd5b5050505050565b60011515600960003373ffffffffffffffffffffffffffffffffffffffff1673ffffffffffffffffffffffffffffffffffffffff16815260200190815260200160002060009054906101000a900460ff16151514610910576040517f08c379a000000000000000000000000000000000000000000000000000000000815260040161090790611b0c565b60405180910390fd5b60001515600b60008473ffffffffffffffffffffffffffffffffffffffff1673ffffffffffffffffffffffffffffffffffffffff16815260200190815260200160002060009054906101000a900460ff161515146109a3576040517f08c379a000000000000000000000000000000000000000000000000000000000815260040161099a90611cbe565b60405180910390fd5b600a60405180608001604052808581526020018473ffffffffffffffffffffffffffffffffffffffff1681526020018381526020018381525090806001815401808255809150506001900390600052602060002090600402016000909190919091506000820151816000019080519060200190610a219291906113e9565b5060208201518160010160006101000a81548173ffffffffffffffffffffffffffffffffffffffff021916908373ffffffffffffffffffffffffffffffffffffffff160217905550604082015181600201556060820151816003015550508060056003016000828254610a949190611cde565b925050819055506001600b60008473ffffffffffffffffffffffffffffffffffffffff1673ffffffffffffffffffffffffffffffffffffffff16815260200190815260200160002060006101000a81548160ff021916908315150217905550505050565b60048181548110610b0857600080fd5b90600052602060002090600402016000915090508060000154908060010160009054906101000a900473ffffffffffffffffffffffffffffffffffffffff1690806002018054610b5790611d63565b80601f0160208091040260200160405190810160405280929190818152602001828054610b8390611d63565b8015610bd05780601f10610ba557610100808354040283529160200191610bd0565b820191906000526020600020905b815481529060010190602001808311610bb357829003601f168201915b5050505050908060030154905084565b60011515600b60008373ffffffffffffffffffffffffffffffffffffffff1673ffffffffffffffffffffffffffffffffffffffff16815260200190815260200160002060009054906101000a900460ff16151514610c73576040517f08c379a0000000000000000000000000000000000000000000000000000000008152600401610c6a90611b78565b60405180910390fd5b6000805b600a80549050811015610d1757600a8181548110610c9857610c97611b98565b5b906000526020600020906004020160010160009054906101000a900473ffffffffffffffffffffffffffffffffffffffff1673ffffffffffffffffffffffffffffffffffffffff168373ffffffffffffffffffffffffffffffffffffffff1603610d0457809150610d17565b8080610d0f90611bf6565b915050610c77565b50600a6001600a80549050610d2c9190611c3e565b81548110610d3d57610d3c611b98565b5b9060005260206000209060040201600a8281548110610d5f57610d5e611b98565b5b90600052602060002090600402016000820181600001908054610d8190611d63565b610d8c92919061146f565b506001820160009054906101000a900473ffffffffffffffffffffffffffffffffffffffff168160010160006101000a81548173ffffffffffffffffffffffffffffffffffffffff021916908373ffffffffffffffffffffffffffffffffffffffff1602179055506002820154816002015560038201548160030155905050600a8181548110610e1f57610e1e611b98565b5b906000526020600020906004020160020154600560030154610e419190611c3e565b600560030181905550600a805480610e5c57610e5b611d94565b5b600190038181906000526020600020906004020160008082016000610e8191906114fc565b6001820160006101000a81549073ffffffffffffffffffffffffffffffffffffffff021916905560028201600090556003820160009055505090556000600b60008473ffffffffffffffffffffffffffffffffffffffff1673ffffffffffffffffffffffffffffffffffffffff16815260200190815260200160002060006101000a81548160ff0219169083151502179055505050565b606060011515600b60008473ffffffffffffffffffffffffffffffffffffffff1673ffffffffffffffffffffffffffffffffffffffff16815260200190815260200160002060009054906101000a900460ff16151514610fad576040517f08c379a0000000000000000000000000000000000000000000000000000000008152600401610fa490611e0f565b60405180910390fd5b60005b600a805490508110156110fe57600a8181548110610fd157610fd0611b98565b5b906000526020600020906004020160010160009054906101000a900473ffffffffffffffffffffffffffffffffffffffff1673ffffffffffffffffffffffffffffffffffffffff168373ffffffffffffffffffffffffffffffffffffffff16036110eb57600a818154811061104957611048611b98565b5b9060005260206000209060040201600001805461106590611d63565b80601f016020809104026020016040519081016040528092919081815260200182805461109190611d63565b80156110de5780601f106110b3576101008083540402835291602001916110de565b820191906000526020600020905b8154815290600101906020018083116110c157829003601f168201915b5050505050915050611100565b80806110f690611bf6565b915050610fb0565b505b919050565b60058060020154908060030154905082565b60015481565b60006005600201546005600301546111359190611c3e565b905090565b60035481565b6060633b9aca00341015611189576040517f08c379a000000000000000000000000000000000000000000000000000000000815260040161118090611e7b565b60405180910390fd5b346005600201600082825461119e9190611cde565b92505081905550600460405180608001604052803481526020013373ffffffffffffffffffffffffffffffffffffffff1681526020018481526020014281525090806001815401808255809150506001900390600052602060002090600402016000909190919091506000820151816000015560208201518160010160006101000a81548173ffffffffffffffffffffffffffffffffffffffff021916908373ffffffffffffffffffffffffffffffffffffffff16021790555060408201518160020190805190602001906112749291906113e9565b50606082015181600301555050346000808282546112929190611cde565b92505081905550600260008154809291906112ac90611bf6565b91905055506040518060400160405280601081526020017f4d616465206120646f6e6174696f6e21000000000000000000000000000000008152509050919050565b60025481565b6000600560020154905090565b600a818154811061131157600080fd5b906000526020600020906004020160009150905080600001805461133490611d63565b80601f016020809104026020016040519081016040528092919081815260200182805461136090611d63565b80156113ad5780601f10611382576101008083540402835291602001916113ad565b820191906000526020600020905b81548152906001019060200180831161139057829003601f168201915b5050505050908060010160009054906101000a900473ffffffffffffffffffffffffffffffffffffffff16908060020154908060030154905084565b8280546113f590611d63565b90600052602060002090601f016020900481019282611417576000855561145e565b82601f1061143057805160ff191683800117855561145e565b8280016001018555821561145e579182015b8281111561145d578251825591602001919060010190611442565b5b50905061146b919061153c565b5090565b82805461147b90611d63565b90600052602060002090601f01602090048101928261149d57600085556114eb565b82601f106114ae57805485556114eb565b828001600101855582156114eb57600052602060002091601f016020900482015b828111156114ea5782548255916001019190600101906114cf565b5b5090506114f8919061153c565b5090565b50805461150890611d63565b6000825580601f1061151a5750611539565b601f016020900490600052602060002090810190611538919061153c565b5b50565b5b8082111561155557600081600090555060010161153d565b5090565b6000604051905090565b600080fd5b600080fd5b6000819050919050565b6115808161156d565b811461158b57600080fd5b50565b60008135905061159d81611577565b92915050565b6000602082840312156115b9576115b8611563565b5b60006115c78482850161158e565b91505092915050565b6115d98161156d565b82525050565b600073ffffffffffffffffffffffffffffffffffffffff82169050919050565b600061160a826115df565b9050919050565b61161a816115ff565b82525050565b600060808201905061163560008301876115d0565b6116426020830186611611565b61164f6040830185611611565b61165c60608301846115d0565b95945050505050565b600060208201905061167a60008301846115d0565b92915050565b600061168b826115df565b9050919050565b61169b81611680565b81146116a657600080fd5b50565b6000813590506116b881611692565b92915050565b600080604083850312156116d5576116d4611563565b5b60006116e3858286016116a9565b92505060206116f48582860161158e565b9150509250929050565b600080fd5b600080fd5b6000601f19601f8301169050919050565b7f4e487b7100000000000000000000000000000000000000000000000000000000600052604160045260246000fd5b61175182611708565b810181811067ffffffffffffffff821117156117705761176f611719565b5b80604052505050565b6000611783611559565b905061178f8282611748565b919050565b600067ffffffffffffffff8211156117af576117ae611719565b5b6117b882611708565b9050602081019050919050565b82818337600083830152505050565b60006117e76117e284611794565b611779565b90508281526020810184848401111561180357611802611703565b5b61180e8482856117c5565b509392505050565b600082601f83011261182b5761182a6116fe565b5b813561183b8482602086016117d4565b91505092915050565b61184d816115ff565b811461185857600080fd5b50565b60008135905061186a81611844565b92915050565b60008060006060848603121561188957611888611563565b5b600084013567ffffffffffffffff8111156118a7576118a6611568565b5b6118b386828701611816565b93505060206118c48682870161185b565b92505060406118d58682870161158e565b9150509250925092565b600081519050919050565b600082825260208201905092915050565b60005b838110156119195780820151818401526020810190506118fe565b83811115611928576000848401525b50505050565b6000611939826118df565b61194381856118ea565b93506119538185602086016118fb565b61195c81611708565b840191505092915050565b600060808201905061197c60008301876115d0565b6119896020830186611611565b818103604083015261199b818561192e565b90506119aa60608301846115d0565b95945050505050565b6000602082840312156119c9576119c8611563565b5b60006119d78482850161185b565b91505092915050565b600060208201905081810360008301526119fa818461192e565b905092915050565b6000604082019050611a1760008301856115d0565b611a2460208301846115d0565b9392505050565b600060208284031215611a4157611a40611563565b5b600082013567ffffffffffffffff811115611a5f57611a5e611568565b5b611a6b84828501611816565b91505092915050565b60006080820190508181036000830152611a8e818761192e565b9050611a9d6020830186611611565b611aaa60408301856115d0565b611ab760608301846115d0565b95945050505050565b7f5065726d697373696f6e2044656e6965642c204e6f7420616e204f776e657200600082015250565b6000611af6601f836118ea565b9150611b0182611ac0565b602082019050919050565b60006020820190508181036000830152611b2581611ae9565b9050919050565b7f42656e656669636961727920646f65736e27742065786973742e000000000000600082015250565b6000611b62601a836118ea565b9150611b6d82611b2c565b602082019050919050565b60006020820190508181036000830152611b9181611b55565b9050919050565b7f4e487b7100000000000000000000000000000000000000000000000000000000600052603260045260246000fd5b7f4e487b7100000000000000000000000000000000000000000000000000000000600052601160045260246000fd5b6000611c018261156d565b91507fffffffffffffffffffffffffffffffffffffffffffffffffffffffffffffffff8203611c3357611c32611bc7565b5b600182019050919050565b6000611c498261156d565b9150611c548361156d565b925082821015611c6757611c66611bc7565b5b828203905092915050565b7f42656e656669636961727920616c726561647920657869737400000000000000600082015250565b6000611ca86019836118ea565b9150611cb382611c72565b602082019050919050565b60006020820190508181036000830152611cd781611c9b565b9050919050565b6000611ce98261156d565b9150611cf48361156d565b9250827fffffffffffffffffffffffffffffffffffffffffffffffffffffffffffffffff03821115611d2957611d28611bc7565b5b828201905092915050565b7f4e487b7100000000000000000000000000000000000000000000000000000000600052602260045260246000fd5b60006002820490506001821680611d7b57607f821691505b602082108103611d8e57611d8d611d34565b5b50919050565b7f4e487b7100000000000000000000000000000000000000000000000000000000600052603160045260246000fd5b7f42656e656669636961727920646f6573206e6f74206578697374000000000000600082015250565b6000611df9601a836118ea565b9150611e0482611dc3565b602082019050919050565b60006020820190508181036000830152611e2881611dec565b9050919050565b7f4e6f7420656e6f75676820646f6e6174696f6e20746f207265636f7264000000600082015250565b6000611e65601d836118ea565b9150611e7082611e2f565b602082019050919050565b60006020820190508181036000830152611e9481611e58565b905091905056fea264697066735822122073be79774dc9cceefd3afb02eba23cfb5c93ab0eba4f909ff5035fc79dcf6e2064736f6c634300080e0033",
  "immutableReferences": {},
  "source": "// SPDX-License-Identifier: MIT\r\npragma solidity >=0.7.0 <0.9.0;\r\n\r\n/// @title A title that should describe the contract/interface\r\n/// @author The name of the author\r\n/// @notice Explain to an end user what this does\r\n/// @dev Explain to a developer any extra details\r\ncontract TrustedDonations {\r\n    uint public totalCollection=0;\r\n    uint public requirement=0;\r\n\r\n    uint public totalDonations;\r\n    uint public totalCharity;\r\n\r\n    struct Donation {\r\n        uint donateAmount;\r\n        address donorAddr;\r\n        string donorName;\r\n        uint time;\r\n    }\r\n\r\n    struct Owner{                                                                \r\n        string[] name;\r\n        address[] ownerAddr;\r\n        uint funds;\r\n        uint requiredFunds;\r\n    }\r\n\r\n    struct Beneficiary{\r\n        string name;\r\n        address addr;\r\n        uint bReq;\r\n        uint bLeft;\r\n    }\r\n\r\n    struct Payment{\r\n        uint paidAmount;\r\n        address beneficiaryAddr;\r\n        address ownerId;\r\n        uint time;\r\n    }\r\n\r\n    Donation[] public DonationList;\r\n    Owner public owner;\r\n    mapping(address => bool) doesOwnExist;\r\n    Beneficiary[] public beneficiaries;\r\n    mapping(address => bool) doesBenExist;\r\n    Payment[] public PaymentList;\r\n                                        \r\n    constructor (string memory _ownerName) {\r\n        owner.name.push(_ownerName);\r\n        owner.ownerAddr.push(msg.sender);\r\n        owner.funds = 0;\r\n        owner.requiredFunds =0;\r\n        doesOwnExist[msg.sender] = true;\r\n\r\n        totalCharity = 0;\r\n        totalDonations = 0;\r\n    }\r\n\r\n    function addBeneficiary(string memory _name, address accNo, uint required) public{\r\n        require(doesOwnExist[msg.sender] == true, \"Permission Denied, Not an Owner\");\r\n        require(doesBenExist[accNo] == false, \"Beneficiary already exist\");\r\n        beneficiaries.push(Beneficiary({\r\n            name : _name,\r\n            addr : accNo,\r\n            bReq : required,\r\n            bLeft: required\r\n            }\r\n        ));\r\n        owner.requiredFunds += required;\r\n        doesBenExist[accNo] = true;\r\n    }\r\n\r\n    function deleteBeneficiary(address accountNum) public {\r\n        require(doesBenExist[accountNum] == true, \"Beneficiary doesn't exist.\");\r\n        uint index = 0;\r\n        for (uint i=0; i< beneficiaries.length; i++) {\r\n            if (accountNum == beneficiaries[i].addr) {\r\n                index = i;\r\n                break;\r\n            }\r\n        }\r\n\r\n        beneficiaries[index] = beneficiaries[beneficiaries.length - 1];\r\n        owner.requiredFunds = owner.requiredFunds - beneficiaries[index].bReq;\r\n        beneficiaries.pop();\r\n        doesBenExist[accountNum] = false;\r\n    }\r\n\r\n    function makeDonation(\r\n            string memory _donorName \r\n        ) public payable returns(string memory)\r\n    {\r\n        if (msg.value < 1 gwei) {\r\n            revert(\"Not enough donation to record\");\r\n        }\r\n\r\n        owner.funds += msg.value;\r\n        \r\n        DonationList.push(Donation({\r\n            donorName: _donorName,\r\n            donorAddr: msg.sender,\r\n            donateAmount: msg.value,\r\n            time: block.timestamp\r\n        }));\r\n        totalCollection += msg.value;\r\n        totalDonations++;\r\n        return \"Made a donation!\" ;\r\n    }\r\n\r\n    function getCollectedFund() public view returns (uint){\r\n        return owner.funds;\r\n    }\r\n\r\n    function getRequiredFund() public view returns (uint){\r\n        return owner.requiredFunds - owner.funds;\r\n    }\r\n\r\n    function findBeneficiary(address accountId) public view returns (string memory result){\r\n        require(doesBenExist[accountId] == true, \"Beneficiary does not exist\");\r\n\r\n        for (uint i=0; i< beneficiaries.length; i++) {\r\n            if (accountId == beneficiaries[i].addr) {\r\n                return beneficiaries[i].name;\r\n            }\r\n        }\r\n    }\r\n\r\n    function payBeneficiary(address payable accountId, uint fund) external{\r\n        require(doesOwnExist[msg.sender] == true, \"Permission Denied, Not an Owner\");\r\n        require(doesBenExist[accountId] == true, \"Beneficiary doesn't exist.\");\r\n\r\n        uint index = 0;\r\n        for (uint i=0; i< beneficiaries.length; i++) {\r\n            if (accountId == beneficiaries[i].addr) {\r\n                index = i;\r\n                break;\r\n            }\r\n        }\r\n        uint payAmount = fund;\r\n        if(beneficiaries[index].bLeft <= fund){\r\n            payAmount = beneficiaries[index].bLeft;\r\n        }\r\n\r\n        beneficiaries[index].bLeft = beneficiaries[index].bLeft - payAmount;\r\n        \r\n        owner.funds = owner.funds - payAmount;\r\n        owner.requiredFunds = owner.requiredFunds - payAmount;\r\n \r\n        PaymentList.push(Payment({\r\n            paidAmount: payAmount,\r\n            beneficiaryAddr: accountId,\r\n            ownerId: msg.sender,\r\n            time: block.timestamp\r\n        }));\r\n\r\n        totalCharity++;\r\n        accountId.transfer(payAmount);\r\n\r\n    }\r\n    \r\n}",
  "sourcePath": "D:\\courses\\sem7\\blockchain_tech\\svelte-dapp\\contracts\\TrustedDonations.sol",
  "compiler": {
    "name": "solc",
    "version": "0.8.14+commit.80d49f37.Emscripten.clang"
  },
  "schemaVersion": "3.4.11",
  "updatedAt": "2022-12-08T14:28:13.470Z",
  "networkType": "ethereum",
  "devdoc": {
    "author": "The name of the author",
    "details": "Explain to a developer any extra details",
    "kind": "dev",
    "methods": {},
    "title": "A title that should describe the contract/interface",
    "version": 1
  },
  "userdoc": {
    "kind": "user",
    "methods": {},
    "notice": "Explain to an end user what this does",
    "version": 1
  }
}